{
  "transactions": [
    {
      "hash": "0xb16b3fa4599a0754e01c3f48a6414dd456703b4157ad13ca43259e334101c559",
      "transactionType": "CREATE",
      "contractName": "NaughtCoinAttacker",
      "contractAddress": "0x167743f1fEAE391420FE8a5089438A28306F4885",
      "function": null,
      "arguments": [
        "0xcEdA057f4F51229dCB7e89354f85281401C76505"
      ],
      "transaction": {
        "type": "0x02",
        "from": "0xd68507ad129cc90edcf31e295eafbebbf0987ac2",
        "gas": "0x39a4a",
        "value": "0x0",
        "data": "0x608060405234801561001057600080fd5b5060405161027438038061027483398101604081905261002f91610054565b600080546001600160a01b0319166001600160a01b0392909216919091179055610084565b60006020828403121561006657600080fd5b81516001600160a01b038116811461007d57600080fd5b9392505050565b6101e1806100936000396000f3fe608060405234801561001057600080fd5b50600436106100365760003560e01c80636856876d1461003b5780639e5faafc1461006a575b600080fd5b60005461004e906001600160a01b031681565b6040516001600160a01b03909116815260200160405180910390f35b610072610074565b005b60005460408051630bfcba7760e21b815290516001600160a01b03909216916323b872dd91339130918591632ff2e9dc916004808201926020929091908290030181865afa1580156100ca573d6000803e3d6000fd5b505050506040513d601f19601f820116820180604052508101906100ee9190610169565b6040516001600160e01b031960e086901b1681526001600160a01b03938416600482015292909116602483015260448201526064016020604051808303816000875af1158015610142573d6000803e3d6000fd5b505050506040513d601f19601f820116820180604052508101906101669190610182565b50565b60006020828403121561017b57600080fd5b5051919050565b60006020828403121561019457600080fd5b815180151581146101a457600080fd5b939250505056fea2646970667358221220051136c7c0d6afdde4ef439723f679749704262c4b6db2668131ceedeb2626ad64736f6c63430008170033000000000000000000000000ceda057f4f51229dcb7e89354f85281401c76505",
        "nonce": "0x61",
        "accessList": []
      },
      "additionalContracts": [],
      "isFixedGasLimit": false
    },
    {
      "hash": "0x5cefbfb017e9a21641dfe87dca4fadddca3f7ad02484e04a49efc7943658580a",
      "transactionType": "CALL",
      "contractName": null,
      "contractAddress": "0xcEdA057f4F51229dCB7e89354f85281401C76505",
      "function": "approve(address,uint256)",
      "arguments": [
        "0x167743f1fEAE391420FE8a5089438A28306F4885",
        "1000000000000000000000000"
      ],
      "transaction": {
        "type": "0x02",
        "from": "0xd68507ad129cc90edcf31e295eafbebbf0987ac2",
        "to": "0xceda057f4f51229dcb7e89354f85281401c76505",
        "gas": "0xf9c8",
        "value": "0x0",
        "data": "0x095ea7b3000000000000000000000000167743f1feae391420fe8a5089438a28306f488500000000000000000000000000000000000000000000d3c21bcecceda1000000",
        "nonce": "0x62",
        "accessList": []
      },
      "additionalContracts": [],
      "isFixedGasLimit": false
    },
    {
      "hash": "0xaf6df2929e0d652d451112eb1ffcf569b7ec608fb4956610d2ce218bbd74ae66",
      "transactionType": "CALL",
      "contractName": "NaughtCoinAttacker",
      "contractAddress": "0x167743f1fEAE391420FE8a5089438A28306F4885",
      "function": "attack()",
      "arguments": [],
      "transaction": {
        "type": "0x02",
        "from": "0xd68507ad129cc90edcf31e295eafbebbf0987ac2",
        "to": "0x167743f1feae391420fe8a5089438a28306f4885",
        "gas": "0x1325b",
        "value": "0x0",
        "data": "0x9e5faafc",
        "nonce": "0x63",
        "accessList": []
      },
      "additionalContracts": [],
      "isFixedGasLimit": false
    }
  ],
  "receipts": [
    {
      "transactionHash": "0xb16b3fa4599a0754e01c3f48a6414dd456703b4157ad13ca43259e334101c559",
      "transactionIndex": "0x46",
      "blockHash": "0x5ac75ed4815c01431182e7febf4fa85046ff9d1fe0b16fb6a9cab82c6e8a5800",
      "blockNumber": "0x4e10cd",
      "from": "0xd68507ad129cC90eDCf31E295EafBEbBf0987Ac2",
      "to": null,
      "cumulativeGasUsed": "0x5734cb",
      "gasUsed": "0x2c59e",
      "contractAddress": "0x167743f1fEAE391420FE8a5089438A28306F4885",
      "logs": [],
      "status": "0x1",
      "logsBloom": "0x00000000000000000000000000000000000000000000000000000000000000000000000000000000000000000000000000000000000000000000000000000000000000000000000000000000000000000000000000000000000000000000000000000000000000000000000000000000000000000000000000000000000000000000000000000000000000000000000000000000000000000000000000000000000000000000000000000000000000000000000000000000000000000000000000000000000000000000000000000000000000000000000000000000000000000000000000000000000000000000000000000000000000000000000000000000",
      "type": "0x2",
      "effectiveGasPrice": "0xd7bdfe917"
    },
    {
      "transactionHash": "0x5cefbfb017e9a21641dfe87dca4fadddca3f7ad02484e04a49efc7943658580a",
      "transactionIndex": "0x47",
      "blockHash": "0x5ac75ed4815c01431182e7febf4fa85046ff9d1fe0b16fb6a9cab82c6e8a5800",
      "blockNumber": "0x4e10cd",
      "from": "0xd68507ad129cC90eDCf31E295EafBEbBf0987Ac2",
      "to": "0xcEdA057f4F51229dCB7e89354f85281401C76505",
      "cumulativeGasUsed": "0x57e9a2",
      "gasUsed": "0xb4d7",
      "contractAddress": null,
      "logs": [
        {
          "address": "0xcEdA057f4F51229dCB7e89354f85281401C76505",
          "topics": [
            "0x8c5be1e5ebec7d5bd14f71427d1e84f3dd0314c0f7b2291e5b200ac8c7c3b925",
            "0x000000000000000000000000d68507ad129cc90edcf31e295eafbebbf0987ac2",
            "0x000000000000000000000000167743f1feae391420fe8a5089438a28306f4885"
          ],
          "data": "0x00000000000000000000000000000000000000000000d3c21bcecceda1000000",
          "blockHash": "0x5ac75ed4815c01431182e7febf4fa85046ff9d1fe0b16fb6a9cab82c6e8a5800",
          "blockNumber": "0x4e10cd",
          "transactionHash": "0x5cefbfb017e9a21641dfe87dca4fadddca3f7ad02484e04a49efc7943658580a",
          "transactionIndex": "0x47",
          "logIndex": "0x6f",
          "removed": false
        }
      ],
      "status": "0x1",
      "logsBloom": "0x00000000000000000000000000000000000000000000000000000000000000000000004000000000000000000000000000000000000000000000000000200000000000000000000000000000000000000000000000000000000000000000000000000000000000000000000000000000000000000000000000000000000000000000000000000000000000000000000000000000000000000000000000000080020000000000000000004000800020000000000000000000000000000000000000000000000000000000000040000000000000000000000000000010000000000010000000000000000000000000000000000000000000000000000000201000",
      "type": "0x2",
      "effectiveGasPrice": "0xd7bdfe917"
    },
    {
      "transactionHash": "0xaf6df2929e0d652d451112eb1ffcf569b7ec608fb4956610d2ce218bbd74ae66",
      "transactionIndex": "0x48",
      "blockHash": "0x5ac75ed4815c01431182e7febf4fa85046ff9d1fe0b16fb6a9cab82c6e8a5800",
      "blockNumber": "0x4e10cd",
      "from": "0xd68507ad129cC90eDCf31E295EafBEbBf0987Ac2",
      "to": "0x167743f1fEAE391420FE8a5089438A28306F4885",
      "cumulativeGasUsed": "0x58c76f",
      "gasUsed": "0xddcd",
      "contractAddress": null,
      "logs": [
        {
          "address": "0xcEdA057f4F51229dCB7e89354f85281401C76505",
          "topics": [
            "0x8c5be1e5ebec7d5bd14f71427d1e84f3dd0314c0f7b2291e5b200ac8c7c3b925",
            "0x000000000000000000000000d68507ad129cc90edcf31e295eafbebbf0987ac2",
            "0x000000000000000000000000167743f1feae391420fe8a5089438a28306f4885"
          ],
          "data": "0x0000000000000000000000000000000000000000000000000000000000000000",
          "blockHash": "0x5ac75ed4815c01431182e7febf4fa85046ff9d1fe0b16fb6a9cab82c6e8a5800",
          "blockNumber": "0x4e10cd",
          "transactionHash": "0xaf6df2929e0d652d451112eb1ffcf569b7ec608fb4956610d2ce218bbd74ae66",
          "transactionIndex": "0x48",
          "logIndex": "0x70",
          "removed": false
        },
        {
          "address": "0xcEdA057f4F51229dCB7e89354f85281401C76505",
          "topics": [
            "0xddf252ad1be2c89b69c2b068fc378daa952ba7f163c4a11628f55a4df523b3ef",
            "0x000000000000000000000000d68507ad129cc90edcf31e295eafbebbf0987ac2",
            "0x000000000000000000000000167743f1feae391420fe8a5089438a28306f4885"
          ],
          "data": "0x00000000000000000000000000000000000000000000d3c21bcecceda1000000",
          "blockHash": "0x5ac75ed4815c01431182e7febf4fa85046ff9d1fe0b16fb6a9cab82c6e8a5800",
          "blockNumber": "0x4e10cd",
          "transactionHash": "0xaf6df2929e0d652d451112eb1ffcf569b7ec608fb4956610d2ce218bbd74ae66",
          "transactionIndex": "0x48",
          "logIndex": "0x71",
          "removed": false
        }
      ],
      "status": "0x1",
      "logsBloom": "0x00000000000000000000000000000000000000000000000000000000000000000000004000000000000000000000000000000000000000000000000000200000000000000000000000000008000000000000000000000000000000000000000000000000000000000000000000000000000000000000000000000010000000000000000000000000000000000000000000000000000000000000000000000080020000000000000000004000800020000000000000000000000000000000000000000002000000000000000040000000000000000000000000000010000000000010000000000000000000000000000000000000000000000000000000201000",
      "type": "0x2",
      "effectiveGasPrice": "0xd7bdfe917"
    }
  ],
  "libraries": [],
  "pending": [],
  "returns": {},
  "timestamp": 1705693134,
  "chain": 11155111,
  "multi": false,
  "commit": "f89c4bd"
}