{
  "transactions": [
    {
      "hash": "0xa67142160df01cbb6a4575e3d247d4369f24cc629fe3d396254a867822c12eec",
      "transactionType": "CREATE",
      "contractName": "PreservationAttacker",
      "contractAddress": "0x32788Fd97466187799BdFB2aa022e83cB625Ad8f",
      "function": null,
      "arguments": [
        "0x2b850CACe7c73b23db7eE0aEe306eC107dFF65B1"
      ],
      "transaction": {
        "type": "0x02",
        "from": "0xd68507ad129cc90edcf31e295eafbebbf0987ac2",
        "gas": "0x2d170",
        "value": "0x0",
        "data": "0x608060405234801561001057600080fd5b506040516101bc3803806101bc83398101604081905261002f91610054565b600380546001600160a01b0319166001600160a01b0392909216919091179055610084565b60006020828403121561006657600080fd5b81516001600160a01b038116811461007d57600080fd5b9392505050565b610129806100936000396000f3fe6080604052348015600f57600080fd5b506004361060505760003560e01c806327d6974f1460555780633beb26c41460835780633dc794221460a55780638da5cb5b1460b7578063cc6002c71460c9575b600080fd5b6001546067906001600160a01b031681565b6040516001600160a01b03909116815260200160405180910390f35b60a3608e36600460db565b50600280546001600160a01b03191632179055565b005b6000546067906001600160a01b031681565b6002546067906001600160a01b031681565b6003546067906001600160a01b031681565b60006020828403121560ec57600080fd5b503591905056fea264697066735822122084fe07bbbe1717e81cad9085036dfb0b4ee257f14c5dbe6adb1adb7ba0af62ad64736f6c634300081700330000000000000000000000002b850cace7c73b23db7ee0aee306ec107dff65b1",
        "nonce": "0x69",
        "accessList": []
      },
      "additionalContracts": [],
      "isFixedGasLimit": false
    },
    {
      "hash": "0x18f268e8138584eb76d3a9692d5ba3541ec9ff8bfe7358b380f9c5abf81d06f1",
      "transactionType": "CALL",
      "contractName": null,
      "contractAddress": "0x2b850CACe7c73b23db7eE0aEe306eC107dFF65B1",
      "function": "setFirstTime(uint256)",
      "arguments": [
        "288138159017898072591742018947896035853904227727"
      ],
      "transaction": {
        "type": "0x02",
        "from": "0xd68507ad129cc90edcf31e295eafbebbf0987ac2",
        "to": "0x2b850cace7c73b23db7ee0aee306ec107dff65b1",
        "gas": "0xa1d9",
        "value": "0x0",
        "data": "0xf1e0262000000000000000000000000032788fd97466187799bdfb2aa022e83cb625ad8f",
        "nonce": "0x6a",
        "accessList": []
      },
      "additionalContracts": [],
      "isFixedGasLimit": false
    },
    {
      "hash": "0x54723e0b480d62f91d6a813ab4b890e039d870cc72173052533b424e8f91a34c",
      "transactionType": "CALL",
      "contractName": null,
      "contractAddress": "0x2b850CACe7c73b23db7eE0aEe306eC107dFF65B1",
      "function": "setFirstTime(uint256)",
      "arguments": [
        "0"
      ],
      "transaction": {
        "type": "0x02",
        "from": "0xd68507ad129cc90edcf31e295eafbebbf0987ac2",
        "to": "0x2b850cace7c73b23db7ee0aee306ec107dff65b1",
        "gas": "0xb651",
        "value": "0x0",
        "data": "0xf1e026200000000000000000000000000000000000000000000000000000000000000000",
        "nonce": "0x6b",
        "accessList": []
      },
      "additionalContracts": [],
      "isFixedGasLimit": false
    }
  ],
  "receipts": [
    {
      "transactionHash": "0xa67142160df01cbb6a4575e3d247d4369f24cc629fe3d396254a867822c12eec",
      "transactionIndex": "0x2f",
      "blockHash": "0xf969459ac924c65169307738ba14a9ae2a62b8ac480df4884b8d5e0964fc2ffb",
      "blockNumber": "0x4e1331",
      "from": "0xd68507ad129cC90eDCf31E295EafBEbBf0987Ac2",
      "to": null,
      "cumulativeGasUsed": "0x13283a",
      "gasUsed": "0x22b12",
      "contractAddress": "0x32788Fd97466187799BdFB2aa022e83cB625Ad8f",
      "logs": [],
      "status": "0x1",
      "logsBloom": "0x00000000000000000000000000000000000000000000000000000000000000000000000000000000000000000000000000000000000000000000000000000000000000000000000000000000000000000000000000000000000000000000000000000000000000000000000000000000000000000000000000000000000000000000000000000000000000000000000000000000000000000000000000000000000000000000000000000000000000000000000000000000000000000000000000000000000000000000000000000000000000000000000000000000000000000000000000000000000000000000000000000000000000000000000000000000",
      "type": "0x2",
      "effectiveGasPrice": "0xf8d92205c"
    },
    {
      "transactionHash": "0x18f268e8138584eb76d3a9692d5ba3541ec9ff8bfe7358b380f9c5abf81d06f1",
      "transactionIndex": "0x30",
      "blockHash": "0xf969459ac924c65169307738ba14a9ae2a62b8ac480df4884b8d5e0964fc2ffb",
      "blockNumber": "0x4e1331",
      "from": "0xd68507ad129cC90eDCf31E295EafBEbBf0987Ac2",
      "to": "0x2b850CACe7c73b23db7eE0aEe306eC107dFF65B1",
      "cumulativeGasUsed": "0x139d68",
      "gasUsed": "0x752e",
      "contractAddress": null,
      "logs": [],
      "status": "0x1",
      "logsBloom": "0x00000000000000000000000000000000000000000000000000000000000000000000000000000000000000000000000000000000000000000000000000000000000000000000000000000000000000000000000000000000000000000000000000000000000000000000000000000000000000000000000000000000000000000000000000000000000000000000000000000000000000000000000000000000000000000000000000000000000000000000000000000000000000000000000000000000000000000000000000000000000000000000000000000000000000000000000000000000000000000000000000000000000000000000000000000000",
      "type": "0x2",
      "effectiveGasPrice": "0xf8d92205c"
    },
    {
      "transactionHash": "0x54723e0b480d62f91d6a813ab4b890e039d870cc72173052533b424e8f91a34c",
      "transactionIndex": "0x31",
      "blockHash": "0xf969459ac924c65169307738ba14a9ae2a62b8ac480df4884b8d5e0964fc2ffb",
      "blockNumber": "0x4e1331",
      "from": "0xd68507ad129cC90eDCf31E295EafBEbBf0987Ac2",
      "to": "0x2b850CACe7c73b23db7eE0aEe306eC107dFF65B1",
      "cumulativeGasUsed": "0x141a12",
      "gasUsed": "0x7caa",
      "contractAddress": null,
      "logs": [],
      "status": "0x1",
      "logsBloom": "0x00000000000000000000000000000000000000000000000000000000000000000000000000000000000000000000000000000000000000000000000000000000000000000000000000000000000000000000000000000000000000000000000000000000000000000000000000000000000000000000000000000000000000000000000000000000000000000000000000000000000000000000000000000000000000000000000000000000000000000000000000000000000000000000000000000000000000000000000000000000000000000000000000000000000000000000000000000000000000000000000000000000000000000000000000000000",
      "type": "0x2",
      "effectiveGasPrice": "0xf8d92205c"
    }
  ],
  "libraries": [],
  "pending": [],
  "returns": {},
  "timestamp": 1705701738,
  "chain": 11155111,
  "multi": false,
  "commit": "f7f4780"
}