{
  "transactions": [
    {
      "hash": "0x6a50f2e47131ce4de5309a8b7e7406a37c6ee2b81624ad8dfcd75d6b33477777",
      "transactionType": "CALL",
      "contractName": null,
      "contractAddress": "0x125F26247D72C135086A65f36B892aF43d0E0B8f",
      "function": "unlock(bytes32)",
      "arguments": [
        "0x412076657279207374726f6e67207365637265742070617373776f7264203a29"
      ],
      "transaction": {
        "type": "0x02",
        "from": "0xd68507ad129cc90edcf31e295eafbebbf0987ac2",
        "to": "0x125f26247d72c135086a65f36b892af43d0e0b8f",
        "gas": "0x8242",
        "value": "0x0",
        "data": "0xec9b5b3a412076657279207374726f6e67207365637265742070617373776f7264203a29",
        "nonce": "0x48",
        "accessList": []
      },
      "additionalContracts": [],
      "isFixedGasLimit": false
    }
  ],
  "receipts": [
    {
      "transactionHash": "0x6a50f2e47131ce4de5309a8b7e7406a37c6ee2b81624ad8dfcd75d6b33477777",
      "transactionIndex": "0x14",
      "blockHash": "0x66cfd4642652a83b374ed144bb382eeea1ac92e8d9431815f983351766fc168c",
      "blockNumber": "0x4de877",
      "from": "0xd68507ad129cC90eDCf31E295EafBEbBf0987Ac2",
      "to": "0x125F26247D72C135086A65f36B892aF43d0E0B8f",
      "cumulativeGasUsed": "0x1d15db",
      "gasUsed": "0x5e4f",
      "contractAddress": null,
      "logs": [],
      "status": "0x1",
      "logsBloom": "0x00000000000000000000000000000000000000000000000000000000000000000000000000000000000000000000000000000000000000000000000000000000000000000000000000000000000000000000000000000000000000000000000000000000000000000000000000000000000000000000000000000000000000000000000000000000000000000000000000000000000000000000000000000000000000000000000000000000000000000000000000000000000000000000000000000000000000000000000000000000000000000000000000000000000000000000000000000000000000000000000000000000000000000000000000000000",
      "type": "0x2",
      "effectiveGasPrice": "0x8302a3aa7"
    }
  ],
  "libraries": [],
  "pending": [],
  "returns": {},
  "timestamp": 1705547144,
  "chain": 11155111,
  "multi": false,
  "commit": "1b47b79"
}