{
  "transactions": [
    {
      "hash": "0x6a5b73612e305aeb014ecfc615b96c75990dfa2c6bd8313449149e1f10525d33",
      "transactionType": "CALL",
      "contractName": null,
      "contractAddress": "0x7Ee1208913B000c7E7D4bE8a55E94Ed86bFb38D0",
      "function": "unlock(bytes16)",
      "arguments": [
        "0xff892b92dc2ec0ec66b36b9223c9820300000000000000000000000000000000"
      ],
      "transaction": {
        "type": "0x02",
        "from": "0xd68507ad129cc90edcf31e295eafbebbf0987ac2",
        "to": "0x7ee1208913b000c7e7d4be8a55e94ed86bfb38d0",
        "gas": "0x8940",
        "value": "0x0",
        "data": "0xe1afb08cff892b92dc2ec0ec66b36b9223c9820300000000000000000000000000000000",
        "nonce": "0x57",
        "accessList": []
      },
      "additionalContracts": [],
      "isFixedGasLimit": false
    }
  ],
  "receipts": [
    {
      "transactionHash": "0x6a5b73612e305aeb014ecfc615b96c75990dfa2c6bd8313449149e1f10525d33",
      "transactionIndex": "0x63",
      "blockHash": "0x2d06a86ff4f9587118413bfe8aca784239a2ae100a11b74f133b18df8ab50377",
      "blockNumber": "0x4dfeec",
      "from": "0xd68507ad129cC90eDCf31E295EafBEbBf0987Ac2",
      "to": "0x7Ee1208913B000c7E7D4bE8a55E94Ed86bFb38D0",
      "cumulativeGasUsed": "0x953d03",
      "gasUsed": "0x5dd9",
      "contractAddress": null,
      "logs": [],
      "status": "0x1",
      "logsBloom": "0x00000000000000000000000000000000000000000000000000000000000000000000000000000000000000000000000000000000000000000000000000000000000000000000000000000000000000000000000000000000000000000000000000000000000000000000000000000000000000000000000000000000000000000000000000000000000000000000000000000000000000000000000000000000000000000000000000000000000000000000000000000000000000000000000000000000000000000000000000000000000000000000000000000000000000000000000000000000000000000000000000000000000000000000000000000000",
      "type": "0x2",
      "effectiveGasPrice": "0xc86dfadd"
    }
  ],
  "libraries": [],
  "pending": [],
  "returns": {},
  "timestamp": 1705628557,
  "chain": 11155111,
  "multi": false,
  "commit": "e5e664c"
}