{
  "transactions": [
    {
      "hash": "0x5997c9af9f071ba9081f3ee896102fa78d2041ddd0540b8ad9bc4c115893059b",
      "transactionType": "CALL",
      "contractName": null,
      "contractAddress": "0xdf7555814cA271b31DdEC7E3b9be9720e6413442",
      "function": "transfer(address,uint256)",
      "arguments": [
        "0x478f3476358Eb166Cb7adE4666d04fbdDB56C407",
        "21"
      ],
      "transaction": {
        "type": "0x02",
        "from": "0xd68507ad129cc90edcf31e295eafbebbf0987ac2",
        "to": "0xdf7555814ca271b31ddec7e3b9be9720e6413442",
        "gas": "0xacde",
        "value": "0x0",
        "data": "0xa9059cbb000000000000000000000000478f3476358eb166cb7ade4666d04fbddb56c4070000000000000000000000000000000000000000000000000000000000000015",
        "nonce": "0x3e",
        "accessList": []
      },
      "additionalContracts": [],
      "isFixedGasLimit": false
    }
  ],
  "receipts": [
    {
      "transactionHash": "0x5997c9af9f071ba9081f3ee896102fa78d2041ddd0540b8ad9bc4c115893059b",
      "transactionIndex": "0xc",
      "blockHash": "0xd7d54148671334812770481b56e5fa9e1044ea10ec1ab03a955a156dad0bf13f",
      "blockNumber": "0x4de558",
      "from": "0xd68507ad129cC90eDCf31E295EafBEbBf0987Ac2",
      "to": "0xdf7555814cA271b31DdEC7E3b9be9720e6413442",
      "cumulativeGasUsed": "0xd7325",
      "gasUsed": "0x7d28",
      "contractAddress": null,
      "logs": [],
      "status": "0x1",
      "logsBloom": "0x00000000000000000000000000000000000000000000000000000000000000000000000000000000000000000000000000000000000000000000000000000000000000000000000000000000000000000000000000000000000000000000000000000000000000000000000000000000000000000000000000000000000000000000000000000000000000000000000000000000000000000000000000000000000000000000000000000000000000000000000000000000000000000000000000000000000000000000000000000000000000000000000000000000000000000000000000000000000000000000000000000000000000000000000000000000",
      "type": "0x2",
      "effectiveGasPrice": "0xb9e9d144"
    }
  ],
  "libraries": [],
  "pending": [],
  "returns": {},
  "timestamp": 1705535682,
  "chain": 11155111,
  "multi": false,
  "commit": "e1d667f"
}